:100000000C942A000C9447000C9447000C94193C63
:100010000C9447000C9447000C9447000C940B2D53
:100020000C9447000C9447000C94D1050C944700A5
:100030000C9447000C9447000C9447000C94470024
:100040000C9447000C9447000C9447000C94470014
:100050000C94470011241FBECFE5D8E0DEBFCDBF12
:1000600011E0A0E6B0E0E8E1FAE702C005900D92E9
:10007000A433B107D9F715E0A4E3B1E001C01D92A4
:10008000AD3AB107E1F70E9499380C940A3D0C94FF
:100090000000EF92FF920F931F937B018C0120E0F1
:1000A00030E040E05FE40E94490388238CF0C801FF
:1000B000B70120E030E040E05FE40E94C1010E940F
:1000C000A9039B01AC01205030404040504806C07D
:1000D000C801B7010E94A9039B01AC01B901CA0183
:1000E0001F910F91FF90EF900895A0E0B0E0EBE733
:1000F000F0E00C94AB3CDC012B01FA019C919230B6
:1001000008F439C1EB018881823008F433C194309E
:1001100069F4843009F02FC111969C91119789815F
:10012000981709F428C1AFEDB0E025C1843009F477
:1001300021C18230A9F4923009F01DC19A01AD01AC
:1001400088E0EA010990AE01E90109929E0181501F
:10015000C1F7E201898111969C918923818308C1AD
:10016000923009F407C112962D903C901397EB0141
:100170008A819B811496AD90BD90CD90DC901797AD
:10018000EC80FD800E811F819101281B390BB90184
:1001900037FF04C066277727621B730B6032710537
:1001A0000CF061C0121613066CF537014801062EDB
:1001B00004C096948794779467940A94D2F721E0C8
:1001C00030E040E050E004C0220F331F441F551FB1
:1001D0006A95D2F721503040404050402E213F21B7
:1001E00040235123211531054105510521F021E01E
:1001F00030E040E050E079018A01E628F72808293C
:1002000019293CC0232BD1F1260E371E350146019A
:10021000062E04C096948794779467940A94D2F734
:1002200021E030E040E050E004C0220F331F441FC3
:10023000551F6A95D2F721503040404050402A2146
:100240003B214C215D21211531054105510521F04E
:1002500021E030E040E050E059016A01A628B728CB
:10026000C828D9280BC0821593052CF01C01AA249C
:10027000BB24650103C0EE24FF24870111969C91E5
:10028000D20111968C91981709F445C0992339F041
:10029000A80197012A193B094C095D0906C0A6016E
:1002A00095012E193F09400B510B57FD08C01182D3
:1002B0003382228224833583468357831DC081E0A5
:1002C00081833382228288279927DC01821B930B4A
:1002D000A40BB50B84839583A683B7830DC0220F2F
:1002E000331F441F551F24833583468357838281E0
:1002F000938101979383828324813581468157813D
:10030000DA01C9010197A109B1098F5F9F4FAF4F72
:10031000BF4328F30BC0918333822282EA0CFB1C7B
:100320000C1D1D1DE482F5820683178383E0808304
:10033000248135814681578157FF1AC0C901AA27F8
:1003400097FDA095BA2F81709070A070B0705695EF
:10035000479537952795822B932BA42BB52B848318
:100360009583A683B7838281938101969383828349
:10037000DF0101C0D201CD01CDB7DEB7E2E10C94BF
:10038000C73CA0E2B0E0E7ECF1E00C94B73C698335
:100390007A838B839C832D833E834F835887E9E048
:1003A000EE2EF12CEC0EFD1ECE010196B7010E943F
:1003B000D2048E010F5E1F4FCE010596B8010E9438
:1003C000D2048A8991E089278A8BC701B801AE01DE
:1003D000475E5F4F0E9475000E94FD03A096E6E015
:1003E0000C94D33CA0E2B0E0E8EFF1E00C94B73C11
:1003F00069837A838B839C832D833E834F835887C5
:10040000F9E0EF2EF12CEC0EFD1ECE010196B701A6
:100410000E94D2048E010F5E1F4FCE010596B801D7
:100420000E94D204C701B801AE01475E5F4F0E942F
:1004300075000E94FD03A096E6E00C94D33CA0E278
:10044000B0E0E5E2F2E00C94AB3C69837A838B8305
:100450009C832D833E834F835887CE010196BE0136
:10046000675F7F4F0E94D204CE010596BE016F5E8A
:100470007F4F0E94D2049985923088F0898982301A
:10048000C8F0943019F4823051F404C0843029F457
:10049000923081F48FED90E0C6C0923049F420E0B4
:1004A0009A858A89981321E02A87CE010996BBC0D4
:1004B000823049F420E09A858A89981321E02A8BBA
:1004C000CE014196B0C02D843E844F8458886D88FB
:1004D0007E888F88988CEE24FF248701AA24BB2471
:1004E000650140E050E060E070E0E0E0F0E0C10174
:1004F00081709070892BE9F0E60CF71C081D191D1E
:100500009A01AB012A0D3B1D4C1D5D1D80E090E062
:10051000A0E0B0E0E614F7040805190520F481E036
:1005200090E0A0E0B0E0BA01A901480F591F6A1F8E
:100530007B1FAA0CBB1CCC1CDD1C97FE08C081E0F5
:1005400090E0A0E0B0E0A82AB92ACA2ADB2A3196B6
:10055000E032F10549F0660C771C881C991C569412
:10056000479437942794C3CFFA85EA892B893C892D
:100570008B859C85280F391F2E5F3F4F17C0CA01FE
:1005800081709070892B61F016950795F794E79428
:1005900080E090E0A0E0B0E8E82AF92A0A2B1B2BC3
:1005A00076956795579547952F5F3F4F77FDE7CF36
:1005B0000CC0440F551F661F771F17FD4160EE0CDE
:1005C000FF1C001F111F21503040403090E05907A0
:1005D00090E0690790E4790760F32B8F3C8FDB0193
:1005E000CA018F779070A070B07080349105A1051A
:1005F000B10561F447FD0AC0E114F10401051105DC
:1006000029F0405C5F4F6F4F7F4F40781A8EFE1786
:1006100011F081E08A8F4D8F5E8F6F8F78A383E01A
:10062000898FCE0149960E94FD03A096E2E10C94C9
:10063000C73CA8E1B0E0EFE1F3E00C94B73C69837C
:100640007A838B839C832D833E834F83588789E0F5
:10065000E82EF12CEC0EFD1ECE010196B7010E9492
:10066000D2048E010F5E1F4FCE010596B8010E9485
:10067000D2048985823040F08989823028F0C70110
:10068000B8010E944A0501C08FEF6896E6E00C941D
:10069000D33CA8E1B0E0EFE4F3E00C94B73C69830D
:1006A0007A838B839C832D833E834F83588789E095
:1006B000E82EF12CEC0EFD1ECE010196B7010E9432
:1006C000D2048E010F5E1F4FCE010596B8010E9425
:1006D000D2048985823040F08989823028F0C701B0
:1006E000B8010E944A0501C08FEF6896E6E00C94BD
:1006F000D33CA8E1B0E0EFE7F3E00C94B73C6983AA
:100700007A838B839C832D833E834F83588789E034
:10071000E82EF12CEC0EFD1ECE010196B7010E94D1
:10072000D2048E010F5E1F4FCE010596B8010E94C4
:10073000D2048985823040F08989823028F0C7014F
:10074000B8010E944A0501C081E06896E6E00C9479
:10075000D33CACE0B0E0EFEAF3E00C94BB3C69833F
:100760007A838B839C83CE010196BE016B5F7F4FA2
:100770000E94D2048D81823061F1823050F1843048
:1007800021F48E81882351F12EC02F81388537FDC9
:1007900020C06E812F3131051CF06623F9F023C093
:1007A0008EE190E0821B930B29853A854B855C8511
:1007B00004C056954795379527958A95D2F76623B5
:1007C000B1F050954095309521953F4F4F4F5F4F79
:1007D0000EC020E030E040E050E009C02FEF3FEFD6
:1007E0004FEF5FE704C020E030E040E050E8B9019F
:1007F000CA012C96E2E00C94D73CDF92EF92FF9274
:100800000F931F93FC01E480F58006811781D1804E
:100810008081823048F480E090E0A0E1B0E0E82AF6
:10082000F92A0A2B1B2BA5C0843009F49FC0823003
:1008300021F4EE24FF24870105C0E114F104010531
:10084000110519F4E0E0F0E096C0628173819FEF3A
:10085000623879070CF05BC022E83FEF261B370BAC
:100860002A3131052CF020E030E040E050E02AC091
:10087000B801A701022E04C0769567955795479554
:100880000A94D2F781E090E0A0E0B0E004C0880FC5
:10089000991FAA1FBB1F2A95D2F70197A109B10979
:1008A0008E219F21A023B1230097A105B10521F03E
:1008B00081E090E0A0E0B0E09A01AB01282B392B59
:1008C0004A2B5B2BDA01C9018F779070A070B07052
:1008D00080349105A105B10539F427FF09C0205CDA
:1008E0003F4F4F4F5F4F04C0215C3F4F4F4F5F4F13
:1008F000E0E0F0E02030A0E03A07A0E04A07A0E402
:100900005A0710F0E1E0F0E079018A0127C0603871
:10091000710564F5FB01E158FF4FD801C7018F77DE
:100920009070A070B07080349105A105B10539F4C4
:10093000E7FE0DC080E490E0A0E0B0E004C08FE3EB
:1009400090E0A0E0B0E0E80EF91E0A1F1B1F17FFA1
:1009500005C016950795F794E794319687E01695AC
:100960000795F794E7948A95D1F705C0EE24FF2404
:100970008701EFEFF0E06E2F679566276795902F60
:100980009F77D794DD24D7948E2F8695492F462BB9
:10099000582F5D29B701CA011F910F91FF90EF9069
:1009A000DF900895FC01DB01408151812281622F9B
:1009B0006F7770E0221F2227221F9381892F880FD3
:1009C000822B282F30E0991F9927991F11969C930D
:1009D000119721153105A9F54115510561057105DD
:1009E00011F482E037C082E89FEF13969C938E93B8
:1009F00012979A01AB0167E0220F331F441F551F66
:100A00006A95D1F783E08C930DC0220F331F441FEA
:100A1000551F12968D919C911397019713969C9355
:100A20008E931297203080E0380780E0480780E4FA
:100A3000580758F314962D933D934D935C93179755
:100A400008952F3F310579F4411551056105710570
:100A500019F484E08C93089564FF03C081E08C93C3
:100A600012C01C9210C02F57304013963C932E9307
:100A7000129783E08C9387E0440F551F661F771F02
:100A80008A95D1F7706414964D935D936D937C9322
:100A9000179708951F93DC01FB019C91923008F495
:100AA00047C08081823008F443C0943051F41196DD
:100AB0001C91843099F58181682F70E0611B710968
:100AC0003FC0843021F0923031F48230B9F181811D
:100AD000882389F12DC011961C9111978230F1F075
:100AE00081811817D9F412962D913C911397828128
:100AF00093818217930794F028173907BCF0149656
:100B00008D919D910D90BC91A02D248135814681C0
:100B10005781281739074A075B0718F4112341F05A
:100B20000AC082179307A407B50740F4112319F0F0
:100B300061E070E005C06FEF7FEF02C060E070E041
:100B4000CB011F910895DF93CF93CDB7DEB7A3E517
:100B5000B0E0E3E5F0E0808188608C93A3E5B0E04D
:100B6000E3E5F0E080818F7B8C93ECE5F0E08DE7AE
:100B70008083A9E5B0E0E9E5F0E0808182608C93B4
:100B8000A3E5B0E0E3E5F0E08081887F8C93A3E506
:100B9000B0E0E3E5F0E0808182608C93CF91DF915B
:100BA00008951F920F920FB60F9211242F933F9327
:100BB0004F935F936F937F938F939F93AF93BF9365
:100BC000EF93FF93DF93CF93CDB7DEB780913401DE
:100BD00090913501009729F0E0913401F0913501B1
:100BE0000995CF91DF91FF91EF91BF91AF919F91C7
:100BF0008F917F916F915F914F913F912F910F90C6
:100C00000FBE0F901F901895DF93CF9300D00F92D7
:100C1000CDB7DEB79B838A8319828A819B81009737
:100C200039F08A819B81909335018093340102C011
:100C300082E0898389810F900F900F90CF91DF918F
:100C40000895DF93CF93CDB7DEB7AFE5B0E0EFE522
:100C5000F0E0808180688C93CF91DF910895DF93DD
:100C6000CF93CDB7DEB7AFE5B0E0EFE5F0E0808140
:100C70008F778C93CF91DF910895DF93CF9300D03E
:100C800000D0CDB7DEB789836A83A6E2B0E0E6E2A2
:100C9000F0E08081887F8C938A8187708A83A6E2C6
:100CA000B0E0E6E2F0E090818A81892B8C93A7E2A4
:100CB000B0E0E7E2F0E080818F7D8C938981282F7E
:100CC00030E03C832B838B819C8181309105C1F086
:100CD0002B813C812230310511F18B819C81009761
:100CE00061F5A7E2B0E0E7E2F0E080818F778C93D6
:100CF000A7E2B0E0E7E2F0E080818F7B8C931DC03B
:100D0000A7E2B0E0E7E2F0E080818F778C93A7E282
:100D1000B0E0E7E2F0E0808180648C930EC0A7E24F
:100D2000B0E0E7E2F0E0808180688C93A7E2B0E079
:100D3000E7E2F0E0808180648C93A6E2B0E0E6E236
:100D4000F0E0808180688C930F900F900F900F904F
:100D5000CF91DF910895DF93CF9300D00F92CDB75D
:100D6000DEB78B83A7E2B0E0E7E2F0E08081807E2F
:100D70008C93A7E2B0E0E7E2F0E090818B81892BD1
:100D80008C93A6E2B0E0E6E2F0E0808180648C9390
:100D9000E6E2F0E080818295869586958370882FC3
:100DA00090E081709070882399F7E4E2F0E0808110
:100DB00091819A83898389819A810F900F900F90F6
:100DC000CF91DF910895DF93CF930F92CDB7DEB728
:100DD0008983809136018823C9F4A7E2B0E0E7E275
:100DE000F0E08081807E8C93A7E2B0E0E7E2F0E063
:100DF00090818981892B8C93A6E2B0E0E6E2F0E055
:100E0000808180648C9381E0809336010F90CF9134
:100E1000DF910895DF93CF9300D0CDB7DEB7E6E240
:100E2000F0E080818295869586958370882F90E08A
:100E300081709070882399F7E4E2F0E080819181DD
:100E40009A83898389819A810F900F90CF91DF9146
:100E50000895DF93CF9300D000D0CDB7DEB79A834B
:100E60008983E6E2F0E0808182958695869583709D
:100E7000882F90E081709070009779F4E4E2F0E0C0
:100E800080819181E981FA8191838083109236017A
:100E900081E090E09C838B8302C01C821B828B814B
:100EA0009C810F900F900F900F90CF91DF9108953C
:100EB000DF93CF9300D000D00F92CDB7DEB78D83F4
:100EC0008D810E94AB069C838B838B819C81CC019E
:100ED000A0E0B0E028E833E140E050E0BC01CD0103
:100EE0000E94363CDC01CB01072E7AE0B695A7952F
:100EF000979587957A95D1F7702D9A838983898103
:100F00009A810F900F900F900F900F90CF91DF91DB
:100F10000895DF93CF93CDB7DEB72C970FB6F89433
:100F2000DEBF0FBECDBF8B836C838B81869586958C
:100F300086958A838B81877089838C81282F30E006
:100F40003C872B878B859C858130910509F4C9C02E
:100F50002B853C852230310509F485C18B859C8524
:100F6000009709F03DC28A81282F30E03A8729870F
:100F700089859A858130910509F43EC029853A8595
:100F8000223031052CF489859A85009771F028C2AA
:100F900029853A852230310509F455C089859A851D
:100FA0008330910509F476C01BC2AAE3B0E0EAE3FE
:100FB000F0E08081482F8981282F30E081E090E0A7
:100FC00002C0880F991F2A95E2F7842B8C93ABE31C
:100FD000B0E0EBE3F0E08081482F8981282F30E0FA
:100FE00081E090E0022E02C0880F991F0A94E2F778
:100FF000809584238C93F4C1A7E3B0E0E7E3F0E0AD
:101000008081482F8981282F30E081E090E002C064
:10101000880F991F2A95E2F7842B8C93A8E3B0E000
:10102000E8E3F0E08081482F8981282F30E081E0DB
:1010300090E0022E02C0880F991F0A94E2F7809573
:1010400084238C93CDC1A4E3B0E0E4E3F0E080819D
:10105000482F8981282F30E081E090E002C0880F7E
:10106000991F2A95E2F7842B8C93A5E3B0E0E5E382
:10107000F0E08081482F8981282F30E081E090E0E6
:10108000022E02C0880F991F0A94E2F780958423EC
:101090008C93A6C1A1E3B0E0E1E3F0E08081482FAA
:1010A0008981282F30E081E090E002C0880F991FED
:1010B0002A95E2F7842B8C93A2E3B0E0E2E3F0E020
:1010C0008081482F8981282F30E081E090E0022E36
:1010D00002C0880F991F0A94E2F7809584238C93AD
:1010E0007FC18A81282F30E038872F838F819885B0
:1010F0008130910509F43FC02F81388522303105B8
:101100002CF48F819885009771F06AC12F81388502
:101110002230310509F457C08F81988583309105BD
:1011200009F479C05DC1AAE3B0E0EAE3F0E08081B0
:10113000482F8981282F30E081E090E002C0880F9D
:10114000991F2A95E2F7809584238C93ABE3B0E056
:10115000EBE3F0E08081482F8981282F30E081E0A7
:1011600090E0022E02C0880F991F0A94E2F7809542
:1011700084238C9335C1A7E3B0E0E7E3F0E08081FE
:10118000482F8981282F30E081E090E002C0880F4D
:10119000991F2A95E2F7809584238C93A8E3B0E009
:1011A000E8E3F0E08081482F8981282F30E081E05A
:1011B00090E0022E02C0880F991F0A94E2F78095F2
:1011C00084238C930DC1A4E3B0E0E4E3F0E08081DC
:1011D000482F8981282F30E081E090E002C0880FFD
:1011E000991F2A95E2F7809584238C93A5E3B0E0BC
:1011F000E5E3F0E08081482F8981282F30E081E00D
:1012000090E0022E02C0880F991F0A94E2F78095A1
:1012100084238C93E5C0A1E3B0E0E1E3F0E08081BA
:10122000482F8981282F30E081E090E002C0880FAC
:10123000991F2A95E2F7809584238C93A2E3B0E06E
:10124000E2E3F0E08081482F8981282F30E081E0BF
:1012500090E0022E02C0880F991F0A94E2F7809551
:1012600084238C93BDC08A81282F30E03E832D8358
:101270008D819E818130910509F43EC02D813E8192
:10128000223031052CF48D819E81009771F0A8C029
:101290002D813E812230310509F455C08D819E811A
:1012A0008330910509F476C09BC0AAE3B0E0EAE37D
:1012B000F0E08081482F8981282F30E081E090E0A4
:1012C00002C0880F991F2A95E2F7809584238C939A
:1012D000ABE3B0E0EBE3F0E08081482F8981282F79
:1012E00030E081E090E0022E02C0880F991F0A943E
:1012F000E2F7842B8C9374C0A7E3B0E0E7E3F0E05F
:101300008081482F8981282F30E081E090E002C061
:10131000880F991F2A95E2F7809584238C93A8E380
:10132000B0E0E8E3F0E08081482F8981282F30E0A9
:1013300081E090E0022E02C0880F991F0A94E2F724
:10134000842B8C934DC0A4E3B0E0E4E3F0E0808113
:10135000482F8981282F30E081E090E002C0880F7B
:10136000991F2A95E2F7809584238C93A5E3B0E03A
:10137000E5E3F0E08081482F8981282F30E081E08B
:1013800090E0022E02C0880F991F0A94E2F7842B86
:101390008C9326C0A1E3B0E0E1E3F0E08081482F28
:1013A0008981282F30E081E090E002C0880F991FEA
:1013B0002A95E2F7809584238C93A2E3B0E0E2E3E0
:1013C000F0E08081482F8981282F30E081E090E093
:1013D000022E02C0880F991F0A94E2F7842B8C9387
:1013E0002C960FB6F894DEBF0FBECDBFCF91DF9124
:1013F0000895DF93CF93CDB7DEB728970FB6F89453
:10140000DEBF0FBECDBF8B836C838B8186958695A7
:1014100086958A838B81877089838C81813009F0DE
:101420006EC08A81282F30E038872F838F8198857E
:101430008130910549F12F813885223031052CF416
:101440008F819885009761F05AC02F8138852230AE
:10145000310571F18F81988583309105E9F14FC095
:10146000ABE3B0E0EBE3F0E08081482F8981282FE7
:1014700030E081E090E0022E02C0880F991F0A94AC
:10148000E2F7842B8C933BC0A8E3B0E0E8E3F0E004
:101490008081482F8981282F30E081E090E0022E62
:1014A00002C0880F991F0A94E2F7842B8C9327C0FF
:1014B000A5E3B0E0E5E3F0E08081482F8981282FA3
:1014C00030E081E090E0022E02C0880F991F0A945C
:1014D000E2F7842B8C9313C0A2E3B0E0E2E3F0E0E8
:1014E0008081482F8981282F30E081E090E0022E12
:1014F00002C0880F991F0A94E2F7842B8C938C8189
:10150000882309F073C08A81282F30E03E832D8321
:101510008D819E818130910559F12D813E8122304E
:1015200031052CF48D819E81009769F05FC02D817B
:101530003E812230310589F18D819E818330910574
:1015400009F440C053C0ABE3B0E0EBE3F0E08081CE
:10155000482F8981282F30E081E090E0022E02C0E0
:10156000880F991F0A94E2F7809584238C933EC0DC
:10157000A8E3B0E0E8E3F0E08081482F8981282FDC
:1015800030E081E090E0022E02C0880F991F0A949B
:10159000E2F7809584238C9329C0A5E3B0E0E5E3CE
:1015A000F0E08081482F8981282F30E081E090E0B1
:1015B000022E02C0880F991F0A94E2F780958423B7
:1015C0008C9314C0A2E3B0E0E2E3F0E08081482F06
:1015D0008981282F30E081E090E0022E02C0880F40
:1015E000991F0A94E2F7809584238C9328960FB66E
:1015F000F894DEBF0FBECDBFCF91DF910895DF938A
:10160000CF9300D000D000D0CDB7DEB78C838C81D3
:101610008695869586958B838C8187708A831982BF
:101620008B81282F30E03E832D834D815E814130B8
:10163000510541F18D819E818230910534F42D81D7
:101640003E812115310561F052C04D815E814230ED
:10165000510551F18D819E8183309105B9F147C0CB
:10166000E9E3F0E08081282F30E08A81882F90E044
:10167000A90102C0559547958A95E2F7CA01817084
:10168000898335C0E6E3F0E08081282F30E08A814D
:10169000882F90E0A90102C0559547958A95E2F7F9
:1016A000CA018170898323C0E3E3F0E08081282FA1
:1016B00030E08A81882F90E0A90102C055954795B6
:1016C0008A95E2F7CA018170898311C0E0E3F0E0F6
:1016D0008081282F30E08A81882F90E0A90102C004
:1016E000559547958A95E2F7CA018170898389816A
:1016F00026960FB6F894DEBF0FBECDBFCF91DF9117
:101700000895DF93CF9300D000D00F92CDB7DEB70E
:101710008B838B818695869586958A838B8187704E
:1017200089838A81282F30E03D832C838C819D81A1
:101730008130910549F12C813D81223031052CF415
:101740008C819D81009761F05AC02C813D812230AF
:10175000310571F18C819D8183309105E9F14FC094
:10176000ABE3B0E0EBE3F0E08081482F8981282FE4
:1017700030E081E090E0022E02C0880F991F0A94A9
:10178000E2F784278C933BC0A8E3B0E0E8E3F0E005
:101790008081482F8981282F30E081E090E0022E5F
:1017A00002C0880F991F0A94E2F784278C9327C000
:1017B000A5E3B0E0E5E3F0E08081482F8981282FA0
:1017C00030E081E090E0022E02C0880F991F0A9459
:1017D000E2F784278C9313C0A2E3B0E0E2E3F0E0E9
:1017E0008081482F8981282F30E081E090E0022E0F
:1017F00002C0880F991F0A94E2F784278C930F90F8
:101800000F900F900F900F90CF91DF910895DF937D
:10181000CF930F92CDB7DEB719820EC08981882F82
:1018200090E0FC01E951FF4F90818981692F0E946E
:10183000890789818F5F89838981803278F30F904E
:10184000CF91DF910895DF93CF9300D000D0CDB733
:10185000DEB789836A838981282F30E03C832B831C
:101860008B819C8181309105D1F02B813C8122308C
:1018700031052CF48B819C81009761F01EC02B8177
:101880003C812230310581F08B819C818330910530
:1018900081F013C0EBE3F0E08A8180830EC0E8E3BF
:1018A000F0E08A81808309C0E5E3F0E08A818083EB
:1018B00004C0E2E3F0E08A8180830F900F900F90E4
:1018C0000F90CF91DF910895DF93CF930F92CDB713
:1018D000DEB789838981882341F4ABE5B0E0EBE58D
:1018E000F0E0808180648C9315C08981813041F45F
:1018F000ABE5B0E0EBE5F0E0808180688C930AC056
:101900008981823039F4ABE5B0E0EBE5F0E080812D
:1019100080628C930F90CF91DF910895DF93CF93E6
:101920000F92CDB7DEB789838981882341F4ABE577
:10193000B0E0EBE5F0E080818F7B8C9315C089816E
:10194000813041F4ABE5B0E0EBE5F0E080818F77EA
:101950008C930AC08981823039F4ABE5B0E0EBE5C5
:10196000F0E080818F7D8C930F90CF91DF9108956F
:10197000DF93CF9300D0CDB7DEB789836A838981A7
:10198000882309F049C08A81882379F4A5E5B0E06D
:10199000E5E5F0E080818E7F8C93A5E5B0E0E5E59C
:1019A000F0E080818D7F8C93B1C08A81813079F4A1
:1019B000A5E5B0E0E5E5F0E0808181608C93A5E5E8
:1019C000B0E0E5E5F0E080818D7F8C939FC08A8157
:1019D000823079F4A5E5B0E0E5E5F0E080818E7F26
:1019E0008C93A5E5B0E0E5E5F0E0808182608C9322
:1019F0008DC08A81833009F089C0A5E5B0E0E5E5B6
:101A0000F0E0808181608C93A5E5B0E0E5E5F0E051
:101A1000808182608C937AC08981813009F048C0CE
:101A20008A81882379F4A5E5B0E0E5E5F0E08081DE
:101A30008B7F8C93A5E5B0E0E5E5F0E08081877FC2
:101A40008C9364C08A81813079F4A5E5B0E0E5E546
:101A5000F0E0808184608C93A5E5B0E0E5E5F0E0FE
:101A60008081877F8C9352C08A81823079F4A5E58A
:101A7000B0E0E5E5F0E080818B7F8C93A5E5B0E0F8
:101A8000E5E5F0E0808188608C9340C08A818330F6
:101A9000E9F5A5E5B0E0E5E5F0E0808184608C93B0
:101AA000A5E5B0E0E5E5F0E0808188608C932EC08C
:101AB0008981823059F58A81882341F4A4E5B0E018
:101AC000E4E5F0E080818F7B8C9320C08A818130B7
:101AD00041F4A4E5B0E0E4E5F0E080818F7B8C93F5
:101AE00015C08A81823041F4A4E5B0E0E4E5F0E07D
:101AF00080818F7B8C930AC08A81833039F4A4E57E
:101B0000B0E0E4E5F0E0808180648C930F900F906A
:101B1000CF91DF910895DF93CF93CDB7DEB7ADE2DC
:101B2000B0E0EDE2F0E0808180618C93ADE2B0E066
:101B3000EDE2F0E0808180648C93CF91DF91089595
:101B4000DF93CF930F92CDB7DEB78983EFE2F0E05A
:101B500089818083EEE2F0E080818823DCF7EFE288
:101B6000F0E080810F90CF91DF910895DF93CF93C4
:101B7000CDB7DEB727970FB6F894DEBF0FBECDBF47
:101B800089836A834B83E3E5F0E010828981282F03
:101B900030E03F832E838E819F818130910521F13A
:101BA0002E813F81223031052CF48E819F81009758
:101BB00061F046C02E813F812230310521F18E81B6
:101BC0009F818330910571F13BC0A3E5B0E0E3E56F
:101BD000F0E080818F7B8C93A3E5B0E0E3E5F0E05B
:101BE0008081877F8C932CC0A3E5B0E0E3E5F0E033
:101BF000808180648C93A3E5B0E0E3E5F0E0808130
:101C0000877F8C931DC0A3E5B0E0E3E5F0E0808121
:101C10008F7B8C93A3E5B0E0E3E5F0E08081886002
:101C20008C930EC0A3E5B0E0E3E5F0E08081806432
:101C30008C93A3E5B0E0E3E5F0E0808188608C93CD
:101C40008B81282F30E03D832C838C819D818130D6
:101C5000910521F12C813D81223031052CF48C81BC
:101C60009D81009761F046C02C813D812230310575
:101C700021F18C819D818330910571F13BC0A3E5F9
:101C8000B0E0E3E5F0E080818F7E8C93A3E5B0E0E7
:101C9000E3E5F0E080818F7D8C932CC0A3E5B0E07C
:101CA000E3E5F0E0808180618C93A3E5B0E0E3E5BB
:101CB000F0E080818F7D8C931DC0A3E5B0E0E3E56B
:101CC000F0E080818F7E8C93A3E5B0E0E3E5F0E067
:101CD000808180628C930EC0A3E5B0E0E3E5F0E084
:101CE000808180618C93A3E5B0E0E3E5F0E0808142
:101CF00080628C93A3E5B0E0E3E5F0E090818A8117
:101D0000892B8C9327960FB6F894DEBF0FBECDBFFC
:101D1000CF91DF910895DF93CF93CDB7DEB7A9E5DB
:101D2000B0E0E9E5F0E0808181608C93CF91DF91B4
:101D30000895DF93CF93CDB7DEB7A9E5B0E0E9E52D
:101D4000F0E080818E7F8C93CF91DF910895DF93B7
:101D5000CF93CDB7DEB7A9E5B0E0E9E5F0E080814B
:101D600082608C93CF91DF910895DF93CF93CDB7AD
:101D7000DEB7A9E5B0E0E9E5F0E080818D7F8C93E6
:101D8000CF91DF910895DF93CF93CDB7DEB7E9E22E
:101D9000F0E083E38083ABE2B0E0EBE2F0E080814F
:101DA0008D7F8C93AAE2B0E0EAE2F0E08081886067
:101DB0008C93AAE2B0E0EAE2F0E0808180618C934B
:101DC000CF91DF910895DF93CF930F92CDB7DEB718
:101DD0008983EBE2F0E08081829586958770882F79
:101DE00090E0817090700097A1F3ECE2F0E08981BF
:101DF00080830F90CF91DF910895DF93CF93CDB77C
:101E0000DEB7EBE2F0E080818823DCF7ECE2F0E083
:101E10008081CF91DF910895DF93CF93CDB7DEB767
:101E2000EBE2F0E080818823DCF7ECE2F0E08081F7
:101E3000CF91DF910895DF93CF9300D00F92CDB76C
:101E4000DEB79A838983EBE2F0E0808188234CF44B
:101E5000ECE2F0E08081E981FA81808381E08B838C
:101E600001C01B828B810F900F900F90CF91DF915B
:101E70000895DF93CF9300D00F92CDB7DEB79B8349
:101E80008A8319820EC08981282F30E08A819B8144
:101E9000FC01E20FF31F80810E94E30E89818F5FB6
:101EA00089838981282F30E08A819B81FC01E20FA0
:101EB000F31F8081882339F70F900F900F90CF91F7
:101EC000DF9108950F931F93DF93CF9300D00F926C
:101ED000CDB7DEB79B838A8319828981282F30E0B2
:101EE0008A819B818C01020F131F0E940C0FF80145
:101EF00080830FC089818F5F89838981282F30E09B
:101F00008A819B818C01020F131F0E940C0FF80124
:101F100080838981282F30E08A819B81FC01E20F38
:101F2000F31F80818D3031F78981282F30E08A813D
:101F30009B81FC01E20FF31F10820F900F900F9016
:101F4000CF91DF911F910F910895DF93CF9300D030
:101F5000CDB7DEB78A8388E0898399818A81892B0E
:101F60008983E1E4F0E0898180830F900F90CF9125
:101F7000DF910895DF93CF93CDB7DEB7A1E4B0E052
:101F8000E1E4F0E0808188618C93E1E4F0E010828C
:101F9000CF91DF910895DF93CF93CDB7DEB78BE07C
:101FA00061E00E94F9098CE061E00E94F9098DE08E
:101FB00061E00E94F9098EE061E00E94F909CF9189
:101FC000DF910895DF93CF9300D00F92CDB7DEB7A6
:101FD00081E489831B8233C08B81855F60E00E942E
:101FE000F9091A8221C08A81845E0E94FF0A88232F
:101FF000C1F48B81482F50E08A81282F30E0CA013C
:10200000880F991F880F991F820F931FFC01EC5EA8
:10201000FE4F808189838A81845E0E94FF0A882323
:10202000D1F38A818F5F8A838A818430E0F28B8149
:10203000855F61E00E94F9098B818F5F8B838B81C3
:10204000843050F289810F900F900F90CF91DF91E3
:102050000895DF93CF93CDB7DEB7AB970FB6F89463
:10206000DEBF0FBECDBF8BA788E060E00E94F909FC
:1020700080E06BA50E94230C80E090E0A0E8BFE325
:102080008FA398A7A9A7BAA76FA178A589A59AA594
:1020900020E030E04AEF54E40E941F02DC01CB0153
:1020A0008BA39CA3ADA3BEA36BA17CA18DA19EA17C
:1020B00020E030E040E85FE30E94790388232CF4BD
:1020C00081E090E09AA389A33FC06BA17CA18DA180
:1020D0009EA120E03FEF4FE757E40E941903181636
:1020E0004CF56FA178A589A59AA520E030E040E2E3
:1020F00051E40E941F02DC01CB01BC01CD010E9412
:102100004900DC01CB019AA389A30FC088EC90E0C1
:1021100098A38F8F8F8D98A10197F1F798A38F8F38
:1021200089A19AA101979AA389A389A19AA100974D
:1021300069F714C06BA17CA18DA19EA10E944900EA
:10214000DC01CB019AA389A389A19AA19E8F8D8FCF
:102150008D8D9E8D0197F1F79E8F8D8F89E061E0C7
:102160000E94F90980E090E0A0E8BFE3898F9A8F90
:10217000AB8FBC8F698D7A8D8B8D9C8D20E030E08C
:102180004AEF54E40E941F02DC01CB018D8B9E8B31
:10219000AF8BB88F6D897E898F89988D20E030E074
:1021A00040E85FE30E94790388232CF481E090E00B
:1021B0009C8B8B8B3FC06D897E898F89988D20E0A9
:1021C0003FEF4FE757E40E94190318164CF5698D4D
:1021D0007A8D8B8D9C8D20E030E040E251E40E94AE
:1021E0001F02DC01CB01BC01CD010E944900DC01D2
:1021F000CB019C8B8B8B0FC088EC90E09A8B898BEA
:1022000089899A890197F1F79A8B898B8B899C89A7
:1022100001979C8B8B8B8B899C89009769F714C0E5
:102220006D897E898F89988D0E944900DC01CB01E0
:102230009C8B8B8B8B899C89988B8F878F859889BA
:102240000197F1F7988B8F8789E060E00E94F90988
:1022500080E090E0A0E8BFE38B879C87AD87BE87D6
:102260006B857C858D859E8520E030E04AEF54E4C7
:102270000E941F02DC01CB018F839887A987BA8750
:102280006F81788589859A8520E030E040E85FE3BA
:102290000E94790388232CF481E090E09E838D8353
:1022A0003FC06F81788589859A8520E03FEF4FE7B1
:1022B00057E40E94190318164CF56B857C858D85B3
:1022C0009E8520E030E040E251E40E941F02DC01E4
:1022D000CB01BC01CD010E944900DC01CB019E83F2
:1022E0008D830FC088EC90E09C838B838B819C81D5
:1022F0000197F1F79C838B838D819E8101979E834B
:102300008D838D819E81009769F714C06F817885D8
:1023100089859A850E944900DC01CB019E838D83CB
:102320008D819E819A83898389819A810197F1F7B2
:102330009A838983AB960FB6F894DEBF0FBECDBFEC
:10234000CF91DF910895DF93CF93CDB7DEB76C9730
:102350000FB6F894DEBF0FBECDBF80E090E0A8E4DA
:10236000B2E4898F9A8FAB8FBC8F698D7A8D8B8DFC
:102370009C8D20E030E04AEF54E40E941F02DC0113
:10238000CB018D8B9E8BAF8BB88F6D897E898F89AA
:10239000988D20E030E040E85FE30E9479038823D5
:1023A0002CF481E090E09C8B8B8B3FC06D897E8903
:1023B0008F89988D20E03FEF4FE757E40E94190383
:1023C00018164CF5698D7A8D8B8D9C8D20E030E050
:1023D00040E251E40E941F02DC01CB01BC01CD01AF
:1023E0000E944900DC01CB019C8B8B8B0FC088ECD9
:1023F00090E09A8B898B89899A890197F1F79A8B5A
:10240000898B8B899C8901979C8B8B8B8B899C8971
:10241000009769F714C06D897E898F89988D0E9415
:102420004900DC01CB019C8B8B8B8B899C89988B21
:102430008F878F8598890197F1F7988B8F8788E32D
:102440000E9429108CE00E94291081E00E9429102E
:1024500080E090E0A0E8BFE38B879C87AD87BE87D4
:102460006B857C858D859E8520E030E04AEF54E4C5
:102470000E941F02DC01CB018F839887A987BA874E
:102480006F81788589859A8520E030E040E85FE3B8
:102490000E94790388232CF481E090E09E838D8351
:1024A0003FC06F81788589859A8520E03FEF4FE7AF
:1024B00057E40E94190318164CF56B857C858D85B1
:1024C0009E8520E030E040E251E40E941F02DC01E2
:1024D000CB01BC01CD010E944900DC01CB019E83F0
:1024E0008D830FC088EC90E09C838B838B819C81D3
:1024F0000197F1F79C838B838D819E8101979E8349
:102500008D838D819E81009769F714C06F817885D6
:1025100089859A850E944900DC01CB019E838D83C9
:102520008D819E819A83898389819A810197F1F7B0
:102530009A83898386E00E9429106C960FB6F894DE
:10254000DEBF0FBECDBFCF91DF910895DF93CF9354
:10255000CDB7DEB7AB970FB6F894DEBF0FBECDBFD9
:102560008BA788E061E00E94F90980E06BA50E94DA
:10257000230C80E090E0A0E8BFE38FA398A7A9A771
:10258000BAA76FA178A589A59AA520E030E04AEF07
:1025900054E40E941F02DC01CB018BA39CA3ADA3DA
:1025A000BEA36BA17CA18DA19EA120E030E040E8FC
:1025B0005FE30E94790388232CF481E090E09AA3E2
:1025C00089A33FC06BA17CA18DA19EA120E03FEF1C
:1025D0004FE757E40E94190318164CF56FA178A530
:1025E00089A59AA520E030E040E251E40E941F0254
:1025F000DC01CB01BC01CD010E944900DC01CB0113
:102600009AA389A30FC088EC90E098A38F8F8F8D39
:1026100098A10197F1F798A38F8F89A19AA10197AB
:102620009AA389A389A19AA1009769F714C06BA105
:102630007CA18DA19EA10E944900DC01CB019AA33F
:1026400089A389A19AA19E8F8D8F8D8D9E8D0197D3
:10265000F1F79E8F8D8F89E061E00E94F90980E09B
:1026600090E0A0E8BFE3898F9A8FAB8FBC8F698D14
:102670007A8D8B8D9C8D20E030E04AEF54E40E94EF
:102680001F02DC01CB018D8B9E8BAF8BB88F6D89C8
:102690007E898F89988D20E030E040E85FE30E94DA
:1026A000790388232CF481E090E09C8B8B8B3FC0D6
:1026B0006D897E898F89988D20E03FEF4FE757E441
:1026C0000E94190318164CF5698D7A8D8B8D9C8D9F
:1026D00020E030E040E251E40E941F02DC01CB0127
:1026E000BC01CD010E944900DC01CB019C8B8B8B8E
:1026F0000FC088EC90E09A8B898B89899A89019721
:10270000F1F79A8B898B8B899C8901979C8B8B8B9A
:102710008B899C89009769F714C06D897E898F89A0
:10272000988D0E944900DC01CB019C8B8B8B8B899F
:102730009C89988B8F878F8598890197F1F7988B63
:102740008F8789E060E00E94F90980E090E0A0E8CE
:10275000BFE38B879C87AD87BE876B857C858D8526
:102760009E8520E030E04AEF54E40E941F02DC0125
:10277000CB018F839887A987BA876F8178858985F0
:102780009A8520E030E040E85FE30E9479038823E7
:102790002CF481E090E09E838D833FC06F8178852B
:1027A00089859A8520E03FEF4FE757E40E9419039F
:1027B00018164CF56B857C858D859E8520E030E074
:1027C00040E251E40E941F02DC01CB01BC01CD01BB
:1027D0000E944900DC01CB019E838D830FC088ECF1
:1027E00090E09C838B838B819C810197F1F79C8384
:1027F0008B838D819E8101979E838D838D819E81A8
:10280000009769F714C06F81788589859A850E9441
:102810004900DC01CB019E838D838D819E819A834B
:10282000898389819A810197F1F79A838983AB968D
:102830000FB6F894DEBF0FBECDBFCF91DF910895E4
:102840000F931F93DF93CF93CDB7DEB766970FB685
:10285000F894DEBF0FBECDBF6B8B7C8B8D8B9E8BB8
:102860001A828B899C89AD89BE89BB2394F48B899C
:102870009C89AD89BE89B095A095909581959F4F13
:10288000AF4FBF4F8B8B9C8BAD8BBE8B8DE20E946D
:10289000A2148A81082F10E08B899C89AD89BE899A
:1028A0002AE030E040E050E0BC01CD010E94623CF3
:1028B000DC01CB01282F205DCE010396FC01E00F47
:1028C000F11F20838B899C89AD89BE892AE030E085
:1028D00040E050E0BC01CD010E94623CDA01C90138
:1028E0008B8B9C8BAD8BBE8B8A818F5F8A838B8910
:1028F0009C89AD89BE89181619061A061B064CF26A
:102900008A818150898310C08981282F332727FD30
:102910003095CE010396FC01E20FF31F80810E94E7
:10292000A214898181508983898188236CF76696F6
:102930000FB6F894DEBF0FBECDBFCF91DF911F91D0
:102940000F910895DF93CF930F92CDB7DEB78983B0
:1029500089810E94A6120F90CF91DF9108950F9365
:102960001F93DF93CF9300D00F92CDB7DEB79B8339
:102970008A8319820EC08981282F30E08A819B8149
:10298000FC01E20FF31F80810E94A21489818F5FF6
:1029900089838981082F10E08A819B810E94F23C03
:1029A0000817190740F30F900F900F90CF91DF9108
:1029B0001F910F910895DF93CF93CDB7DEB72E9778
:1029C0000FB6F894DEBF0FBECDBF81E00E94291084
:1029D00080E090E0A0E8BFE38B879C87AD87BE874F
:1029E0006B857C858D859E8520E030E04AEF54E440
:1029F0000E941F02DC01CB018F839887A987BA87C9
:102A00006F81788589859A8520E030E040E85FE332
:102A10000E94790388232CF481E090E09E838D83CB
:102A20003FC06F81788589859A8520E03FEF4FE729
:102A300057E40E94190318164CF56B857C858D852B
:102A40009E8520E030E040E251E40E941F02DC015C
:102A5000CB01BC01CD010E944900DC01CB019E836A
:102A60008D830FC088EC90E09C838B838B819C814D
:102A70000197F1F79C838B838D819E8101979E83C3
:102A80008D838D819E81009769F714C06F81788551
:102A900089859A850E944900DC01CB019E838D8344
:102AA0008D819E819A83898389819A810197F1F72B
:102AB0009A8389832E960FB6F894DEBF0FBECDBFE2
:102AC000CF91DF910895DF93CF9300D0CDB7DEB7DC
:102AD00089836A838981882329F48A8180580E94A6
:102AE000291007C08981813021F48A8180540E9495
:102AF00029100F900F90CF91DF910895DF93CF931E
:102B0000CDB7DEB764970FB6F894DEBF0FBECDBF6A
:102B10008C8B1B828C898031A0F48B81282F30E034
:102B20008C89882F90E0FC01E05AFF4F4081CE0154
:102B30000496FC01E20FF31F40838B818F5F8B8330
:102B40001DC08C898F708A838C8982958F708C8B45
:102B50008B81282F30E08A81882F90E0FC01E05A99
:102B6000FF4F4081CE010496FC01E20FF31F40832A
:102B70008B818F5F8B838C89882319F78B818150A0
:102B8000898310C08981282F332727FD3095CE01F6
:102B90000496FC01E20FF31F80810E94A214898138
:102BA00081508983898188236CF764960FB6F894E5
:102BB000DEBF0FBECDBFCF91DF910895DF93CF93DE
:102BC000CDB7DEB72C970FB6F894DEBF0FBECDBFE2
:102BD0008C871B828C8581708A838C8586958C87F7
:102BE0008A81813059F48B81282F30E0CE01049600
:102BF000FC01E20FF31F81E380830AC08B81282F41
:102C000030E0CE010496FC01E20FF31F80E38083E5
:102C10008B818F5F8B838C858823E1F68B8181503C
:102C2000898310C08981282F332727FD3095CE0155
:102C30000496FC01E20FF31F80810E94A214898197
:102C400081508983898188236CF72C960FB6F8947C
:102C5000DEBF0FBECDBFCF91DF910895DF93CF933D
:102C60000F92CDB7DEB789838981882F90E0880FD6
:102C7000991F880F991FFC01EC5DFE4F80819181A7
:102C800061E00E94F9098981882F90E0880F991FDF
:102C90000196880F991FFC01EC5DFE4F80819181A8
:102CA00060E00E94F9090F90CF91DF910895DF93C2
:102CB000CF930F92CDB7DEB789838981882F90E0BB
:102CC000880F991F880F991FFC01EC5DFE4F8081D2
:102CD000918160E00E94F9098981882F90E0880F36
:102CE000991F0196880F991FFC01EC5DFE4F8081B2
:102CF000918161E00E94F9090F90CF91DF910895D1
:102D0000DF93CF930F92CDB7DEB789838981882F68
:102D100090E0880F991F880F991FFC01EC5DFE4F12
:102D20008081918160E00E94F9098981882F90E07B
:102D3000880F991F0196880F991FFC01EC5DFE4FCB
:102D40008081918160E00E94F9090F90CF91DF911D
:102D50000895DF93CF93CDB7DEB7AA970FB6F89457
:102D6000DEBF0FBECDBF84E161E00E94F90985E1BD
:102D700060E00E94F90986E160E00E94F90987E1BC
:102D800060E00E94F90980E090E0AAEFB3E48FA32D
:102D900098A7A9A7BAA76FA178A589A59AA520E0A9
:102DA00030E04AEF54E40E941F02DC01CB018BA308
:102DB0009CA3ADA3BEA36BA17CA18DA19EA120E08D
:102DC00030E040E85FE30E94790388232CF481E03F
:102DD00090E09AA389A33FC06BA17CA18DA19EA185
:102DE00020E03FEF4FE757E40E94190318164CF517
:102DF0006FA178A589A59AA520E030E040E251E4D2
:102E00000E941F02DC01CB01BC01CD010E944900E0
:102E1000DC01CB019AA389A30FC088EC90E098A3B2
:102E20008F8F8F8D98A10197F1F798A38F8F89A12C
:102E30009AA101979AA389A389A19AA1009769F7FA
:102E400014C06BA17CA18DA19EA10E944900DC0150
:102E5000CB019AA389A389A19AA19E8F8D8F8D8D75
:102E60009E8D0197F1F79E8F8D8F84E160E00E9427
:102E7000F90985E160E00E94F90986E161E00E94BC
:102E8000F90987E160E00E94F90980E090E0AAEF8B
:102E9000B3E4898F9A8FAB8FBC8F698D7A8D8B8DC0
:102EA0009C8D20E030E04AEF54E40E941F02DC01D8
:102EB000CB018D8B9E8BAF8BB88F6D897E898F896F
:102EC000988D20E030E040E85FE30E94790388239A
:102ED0002CF481E090E09C8B8B8B3FC06D897E89C8
:102EE0008F89988D20E03FEF4FE757E40E94190348
:102EF00018164CF5698D7A8D8B8D9C8D20E030E015
:102F000040E251E40E941F02DC01CB01BC01CD0173
:102F10000E944900DC01CB019C8B8B8B0FC088EC9D
:102F200090E09A8B898B89899A890197F1F79A8B1E
:102F3000898B8B899C8901979C8B8B8B8B899C8936
:102F4000009769F714C06D897E898F89988D0E94DA
:102F50004900DC01CB019C8B8B8B8B899C89988BE6
:102F60008F878F8598890197F1F7988B8F8784E1F8
:102F700060E00E94F90985E161E00E94F90986E1BB
:102F800060E00E94F90987E160E00E94F90980E0B1
:102F900090E0AAEFB3E48B879C87AD87BE876B85F3
:102FA0007C858D859E8520E030E04AEF54E40E94C8
:102FB0001F02DC01CB018F839887A987BA876F81B5
:102FC000788589859A8520E030E040E85FE30E94BB
:102FD000790388232CF481E090E09E838D833FC0A9
:102FE0006F81788589859A8520E03FEF4FE757E428
:102FF0000E94190318164CF56B857C858D859E857E
:1030000020E030E040E251E40E941F02DC01CB01ED
:10301000BC01CD010E944900DC01CB019E838D8360
:103020000FC088EC90E09C838B838B819C810197FF
:10303000F1F79C838B838D819E8101979E838D8385
:103040008D819E81009769F714C06F81788589858D
:103050009A850E944900DC01CB019E838D838D817E
:103060009E819A83898389819A810197F1F79A8356
:10307000898384E160E00E94F90985E160E00E94B3
:10308000F90986E160E00E94F90987E161E00E94A8
:10309000F909AA960FB6F894DEBF0FBECDBFCF9147
:1030A000DF910895DF93CF93CDB7DEB7E8970FB6E2
:1030B000F894DEBF0FBECDBF84E161E00E94F90944
:1030C00085E160E00E94F90986E160E00E94F9096B
:1030D00087E160E00E94F90980E090E0AAEFB3E4A4
:1030E0008DAB9EABAFABB8AF6DA97EA98FA998ADE4
:1030F00020E030E04AEF54E40E941F02DC01CB01E3
:1031000089AB9AABABABBCAB69A97AA98BA99CA9DB
:1031100020E030E040E85FE30E94790388232CF44C
:1031200081E090E098AB8FA73FC069A97AA98BA9ED
:103130009CA920E03FEF4FE757E40E9419031816BF
:103140004CF56DA97EA98FA998AD20E030E040E252
:1031500051E40E941F02DC01CB01BC01CD010E94A1
:103160004900DC01CB0198AB8FA70FC088EC90E041
:103170009EA78DA78DA59EA50197F1F79EA78DA768
:103180008FA598A9019798AB8FA78FA598A90097AD
:1031900069F714C069A97AA98BA99CA90E94490062
:1031A000DC01CB0198AB8FA78FA598A99CA78BA713
:1031B0008BA59CA50197F1F79CA78BA784E160E004
:1031C0000E94F90985E160E00E94F90986E160E06A
:1031D0000E94F90987E161E00E94F90980E090E02E
:1031E000AAEFB3E48FA398A7A9A7BAA76FA178A560
:1031F00089A59AA520E030E04AEF54E40E941F021E
:10320000DC01CB018BA39CA3ADA3BEA36BA17CA1CE
:103210008DA19EA120E030E040E85FE30E947903A9
:1032200088232CF481E090E09AA389A33FC06BA18E
:103230007CA18DA19EA120E03FEF4FE757E40E94C3
:10324000190318164CF56FA178A589A59AA520E059
:1032500030E040E251E40E941F02DC01CB01BC01DE
:10326000CD010E944900DC01CB019AA389A30FC0C4
:1032700088EC90E098A38F8F8F8D98A10197F1F73C
:1032800098A38F8F89A19AA101979AA389A389A155
:103290009AA1009769F714C06BA17CA18DA19EA192
:1032A0000E944900DC01CB019AA389A389A19AA1BC
:1032B0009E8F8D8F8D8D9E8D0197F1F79E8F8D8FB7
:1032C00084E160E00E94F90985E161E00E94F9096A
:1032D00086E160E00E94F90987E160E00E94F90957
:1032E00080E090E0AAEFB3E4898F9A8FAB8FBC8F18
:1032F000698D7A8D8B8D9C8D20E030E04AEF54E40F
:103300000E941F02DC01CB018D8B9E8BAF8BB88F8F
:103310006D897E898F89988D20E030E040E85FE3F9
:103320000E94790388232CF481E090E09C8B8B8BA6
:103330003FC06D897E898F89988D20E03FEF4FE7F0
:1033400057E40E94190318164CF5698D7A8D8B8D00
:103350009C8D20E030E040E251E40E941F02DC013D
:10336000CB01BC01CD010E944900DC01CB019C8B4B
:103370008B8B0FC088EC90E09A8B898B89899A8916
:103380000197F1F79A8B898B8B899C8901979C8B8C
:103390008B8B8B899C89009769F714C06D897E8916
:1033A0008F89988D0E944900DC01CB019C8B8B8B0F
:1033B0008B899C89988B8F878F8598890197F1F7E6
:1033C000988B8F8784E160E00E94F90985E160E0D5
:1033D0000E94F90986E161E00E94F90987E160E055
:1033E0000E94F90980E090E0AAEFB3E48B879C8704
:1033F000AD87BE876B857C858D859E8520E030E01E
:103400004AEF54E40E941F02DC01CB018F839887AE
:10341000A987BA876F81788589859A8520E030E011
:1034200040E85FE30E94790388232CF481E090E078
:103430009E838D833FC06F81788589859A8520E042
:103440003FEF4FE757E40E94190318164CF56B85C0
:103450007C858D859E8520E030E040E251E40E942D
:103460001F02DC01CB01BC01CD010E944900DC013F
:10347000CB019E838D830FC088EC90E09C838B836F
:103480008B819C810197F1F79C838B838D819E8139
:1034900001979E838D838D819E81009769F714C06B
:1034A0006F81788589859A850E944900DC01CB016E
:1034B0009E838D838D819E819A83898389819A8160
:1034C0000197F1F79A838983E8960FB6F894DEBFE7
:1034D0000FBECDBFCF91DF910895DF93CF93CDB7CE
:1034E000DEB7E8970FB6F894DEBF0FBECDBF84E11C
:1034F00061E00E94F90985E160E00E94F90986E136
:1035000060E00E94F90987E160E00E94F90980E02B
:1035100090E0AAEFB3E48DAB9EABAFABB8AF6DA9B3
:103520007EA98FA998AD20E030E04AEF54E40E94D4
:103530001F02DC01CB0189AB9AABABABBCAB69A979
:103540007AA98BA99CA920E030E040E85FE30E94C3
:10355000790388232CF481E090E098AB8FA73FC0DB
:1035600069A97AA98BA99CA920E03FEF4FE757E40E
:103570000E94190318164CF56DA97EA98FA998AD64
:1035800020E030E040E251E40E941F02DC01CB0168
:10359000BC01CD010E944900DC01CB0198AB8FA793
:1035A0000FC088EC90E09EA78DA78DA59EA50197E2
:1035B000F1F79EA78DA78FA598A9019798AB8FA724
:1035C0008FA598A9009769F714C069A97AA98BA952
:1035D0009CA90E944900DC01CB0198AB8FA78FA565
:1035E00098A99CA78BA78BA59CA50197F1F79CA7F1
:1035F0008BA784E160E00E94F90985E161E00E9407
:10360000F90986E160E00E94F90987E160E00E9423
:10361000F90980E090E0AAEFB3E48FA398A7A9A7E7
:10362000BAA76FA178A589A59AA520E030E04AEF56
:1036300054E40E941F02DC01CB018BA39CA3ADA329
:10364000BEA36BA17CA18DA19EA120E030E040E84B
:103650005FE30E94790388232CF481E090E09AA331
:1036600089A33FC06BA17CA18DA19EA120E03FEF6B
:103670004FE757E40E94190318164CF56FA178A57F
:1036800089A59AA520E030E040E251E40E941F02A3
:10369000DC01CB01BC01CD010E944900DC01CB0162
:1036A0009AA389A30FC088EC90E098A38F8F8F8D89
:1036B00098A10197F1F798A38F8F89A19AA10197FB
:1036C0009AA389A389A19AA1009769F714C06BA155
:1036D0007CA18DA19EA10E944900DC01CB019AA38F
:1036E00089A389A19AA19E8F8D8F8D8D9E8D019723
:1036F000F1F79E8F8D8F84E160E00E94F90985E1EA
:1037000060E00E94F90986E161E00E94F90987E121
:1037100060E00E94F90980E090E0AAEFB3E4898FAD
:103720009A8FAB8FBC8F698D7A8D8B8D9C8D20E0AD
:1037300030E04AEF54E40E941F02DC01CB018D8B84
:103740009E8BAF8BB88F6D897E898F89988D20E095
:1037500030E040E85FE30E94790388232CF481E0A5
:1037600090E09C8B8B8B3FC06D897E898F89988D73
:1037700020E03FEF4FE757E40E94190318164CF57D
:10378000698D7A8D8B8D9C8D20E030E040E251E494
:103790000E941F02DC01CB01BC01CD010E94490047
:1037A000DC01CB019C8B8B8B0FC088EC90E09A8B5B
:1037B000898B89899A890197F1F79A8B898B8B89F3
:1037C0009C8901979C8B8B8B8B899C89009769F7CF
:1037D00014C06D897E898F89988D0E944900DC0113
:1037E000CB019C8B8B8B8B899C89988B8F878F854A
:1037F00098890197F1F7988B8F8784E160E00E94A8
:10380000F90985E160E00E94F90986E160E00E9423
:10381000F90987E161E00E94F90980E090E0AAEFF0
:10382000B3E48B879C87AD87BE876B857C858D8550
:103830009E8520E030E04AEF54E40E941F02DC0144
:10384000CB018F839887A987BA876F81788589850F
:103850009A8520E030E040E85FE30E947903882306
:103860002CF481E090E09E838D833FC06F8178854A
:1038700089859A8520E03FEF4FE757E40E941903BE
:1038800018164CF56B857C858D859E8520E030E093
:1038900040E251E40E941F02DC01CB01BC01CD01DA
:1038A0000E944900DC01CB019E838D830FC088EC10
:1038B00090E09C838B838B819C810197F1F79C83A3
:1038C0008B838D819E8101979E838D838D819E81C7
:1038D000009769F714C06F81788589859A850E9461
:1038E0004900DC01CB019E838D838D819E819A836B
:1038F000898389819A810197F1F79A838983E89670
:103900000FB6F894DEBF0FBECDBFCF91DF91089503
:10391000DF93CF93CDB7DEB7E8970FB6F894DEBF4D
:103920000FBECDBF84E161E00E94F90985E160E04E
:103930000E94F90986E160E00E94F90987E160E0F0
:103940000E94F90980E090E0AAEFB3E48DAB9EAB52
:10395000AFABB8AF6DA97EA98FA998AD20E030E0DC
:103960004AEF54E40E941F02DC01CB0189AB9AAB01
:10397000ABABBCAB69A97AA98BA99CA920E030E0CC
:1039800040E85FE30E94790388232CF481E090E013
:1039900098AB8FA73FC069A97AA98BA99CA920E001
:1039A0003FEF4FE757E40E94190318164CF56DA935
:1039B0007EA98FA998AD20E030E040E251E40E945A
:1039C0001F02DC01CB01BC01CD010E944900DC01DA
:1039D000CB0198AB8FA70FC088EC90E09EA78DA776
:1039E0008DA59EA50197F1F79EA78DA78FA598A9F4
:1039F000019798AB8FA78FA598A9009769F714C076
:103A000069A97AA98BA99CA90E944900DC01CB0174
:103A100098AB8FA78FA598A99CA78BA78BA59CA5D2
:103A20000197F1F79CA78BA784E160E00E94F90958
:103A300085E160E00E94F90986E160E00E94F909F1
:103A400087E161E00E94F90980E090E0AAEFB3E429
:103A50008FA398A7A9A7BAA76FA178A589A59AA5AA
:103A600020E030E04AEF54E40E941F02DC01CB0169
:103A70008BA39CA3ADA3BEA36BA17CA18DA19EA192
:103A800020E030E040E85FE30E94790388232CF4D3
:103A900081E090E09AA389A33FC06BA17CA18DA196
:103AA0009EA120E03FEF4FE757E40E94190318164C
:103AB0004CF56FA178A589A59AA520E030E040E2F9
:103AC00051E40E941F02DC01CB01BC01CD010E9428
:103AD0004900DC01CB019AA389A30FC088EC90E0D8
:103AE00098A38F8F8F8D98A10197F1F798A38F8F4F
:103AF00089A19AA101979AA389A389A19AA1009764
:103B000069F714C06BA17CA18DA19EA10E94490000
:103B1000DC01CB019AA389A389A19AA19E8F8D8FE5
:103B20008D8D9E8D0197F1F79E8F8D8F84E160E0E2
:103B30000E94F90985E160E00E94F90986E161E0EF
:103B40000E94F90987E160E00E94F90980E090E0B5
:103B5000AAEFB3E4898F9A8FAB8FBC8F698D7A8D72
:103B60008B8D9C8D20E030E04AEF54E40E941F02D0
:103B7000DC01CB018D8B9E8BAF8BB88F6D897E89DD
:103B80008F89988D20E030E040E85FE30E94790360
:103B900088232CF481E090E09C8B8B8B3FC06D8957
:103BA0007E898F89988D20E03FEF4FE757E40E9490
:103BB000190318164CF5698D7A8D8B8D9C8D20E03C
:103BC00030E040E251E40E941F02DC01CB01BC0165
:103BD000CD010E944900DC01CB019C8B8B8B0FC077
:103BE00088EC90E09A8B898B89899A890197F1F703
:103BF0009A8B898B8B899C8901979C8B8B8B8B896A
:103C00009C89009769F714C06D897E898F89988D8A
:103C10000E944900DC01CB019C8B8B8B8B899C899A
:103C2000988B8F878F8598890197F1F7988B8F876D
:103C300084E160E00E94F90985E161E00E94F909F0
:103C400086E160E00E94F90987E160E00E94F909DD
:103C500080E090E0AAEFB3E48B879C87AD87BE87B6
:103C60006B857C858D859E8520E030E04AEF54E4AD
:103C70000E941F02DC01CB018F839887A987BA8736
:103C80006F81788589859A8520E030E040E85FE3A0
:103C90000E94790388232CF481E090E09E838D8339
:103CA0003FC06F81788589859A8520E03FEF4FE797
:103CB00057E40E94190318164CF56B857C858D8599
:103CC0009E8520E030E040E251E40E941F02DC01CA
:103CD000CB01BC01CD010E944900DC01CB019E83D8
:103CE0008D830FC088EC90E09C838B838B819C81BB
:103CF0000197F1F79C838B838D819E8101979E8331
:103D00008D838D819E81009769F714C06F817885BE
:103D100089859A850E944900DC01CB019E838D83B1
:103D20008D819E819A83898389819A810197F1F798
:103D30009A838983E8960FB6F894DEBF0FBECDBF95
:103D4000CF91DF9108950F931F93DF93CF93CDB75A
:103D5000DEB7C057D0400FB6F894DEBF0FBECDBF60
:103D600084E161E00E94F90985E160E00E94F909BF
:103D700086E160E00E94F90987E160E00E94F909AC
:103D8000FE01E359FF4F80E090E0AAEFB3E48083A7
:103D90009183A283B3838E0107591F4FFE01E3591C
:103DA000FF4F608171818281938120E030E04AEF92
:103DB00054E40E941F02DC01CB01F801808391834F
:103DC000A283B383FE01E759FF4F60817181828135
:103DD000938120E030E040E85FE30E94790388238C
:103DE00044F4FE01E959FF4F81E090E09183808324
:103DF00064C0FE01E759FF4F608171818281938128
:103E000020E03FEF4FE757E40E94190318160CF02B
:103E100043C0FE01E359FF4F60817181828193812C
:103E200020E030E040E251E40E941F02DC01CB01BF
:103E30008E0109591F4FBC01CD010E944900DC01D0
:103E4000CB01F801918380831FC0FE01EB59FF4F26
:103E500088EC90E091838083FE01EB59FF4F8081D5
:103E600091810197F1F7FE01EB59FF4F9183808318
:103E7000DE01A959BF4FFE01E959FF4F80819181B1
:103E8000019711969C938E93FE01E959FF4F808113
:103E900091810097D1F627C08E0109591F4FFE016D
:103EA000E759FF4F60817181828193810E944900AF
:103EB000DC01CB01F80191838083DE01AD59BF4F56
:103EC000FE01E959FF4F808191818D939C93FE0102
:103ED000ED59FF4F808191810197F1F7FE01ED5976
:103EE000FF4F9183808384E161E00E94F90985E1BD
:103EF00061E00E94F90986E160E00E94F90987E12A
:103F000060E00E94F909FE01E15AFF4F80E090E075
:103F1000AAEFB3E480839183A283B3838E01055A11
:103F20001F4FFE01E15AFF4F6081718182819381B1
:103F300020E030E04AEF54E40E941F02DC01CB0194
:103F4000F80180839183A283B383FE01E55AFF4F7A
:103F5000608171818281938120E030E040E85FE3FD
:103F60000E947903882344F4FE01E75AFF4F81E061
:103F700090E09183808364C0FE01E55AFF4F608129
:103F800071818281938120E03FEF4FE757E40E94E7
:103F9000190318160CF043C0FE01E15AFF4F60816F
:103FA00071818281938120E030E040E251E40E94FF
:103FB0001F02DC01CB018E01075A1F4FBC01CD014E
:103FC0000E944900DC01CB01F801918380831FC06E
:103FD000FE01E95AFF4F88EC90E091838083FE0157
:103FE000E95AFF4F808191810197F1F7FE01E95A6B
:103FF000FF4F91838083DE01A75ABF4FFE01E75A2E
:10400000FF4F80819181019711969C938E93FE01C1
:10401000E75AFF4F808191810097D1F627C08E012A
:10402000075A1F4FFE01E55AFF4F6081718182815F
:1040300093810E944900DC01CB01F80191838083C8
:10404000DE01AB5ABF4FFE01E75AFF4F80819181DD
:104050008D939C93FE01EB5AFF4F808191810197D4
:10406000F1F7FE01EB5AFF4F9183808384E160E01A
:104070000E94F90985E161E00E94F90986E160E0AA
:104080000E94F90987E160E00E94F909FE01EF5AF8
:10409000FF4F80E090E0AAEFB3E480839183A28396
:1040A000B3838E01035B1F4FFE01EF5AFF4F608108
:1040B00071818281938120E030E04AEF54E40E94D4
:1040C0001F02DC01CB01F80180839183A283B383BB
:1040D000FE01E35BFF4F608171818281938120E06B
:1040E00030E040E85FE30E947903882344F4FE0156
:1040F000E55BFF4F81E090E09183808364C0FE0127
:10410000E35BFF4F608171818281938120E03FEF0B
:104110004FE757E40E94190318160CF043C0FE0144
:10412000EF5AFF4F608171818281938120E030E0FE
:1041300040E251E40E941F02DC01CB018E01055BCD
:104140001F4FBC01CD010E944900DC01CB01F801E9
:10415000918380831FC0FE01E75BFF4F88EC90E0F6
:1041600091838083FE01E75BFF4F808191810197FE
:10417000F1F7FE01E75BFF4F91838083DE01A55BD2
:10418000BF4FFE01E55BFF4F808191810197119642
:104190009C938E93FE01E55BFF4F80819181009798
:1041A000D1F627C08E01055B1F4FFE01E35BFF4F79
:1041B00060817181828193810E944900DC01CB0181
:1041C000F80191838083DE01A95BBF4FFE01E55BAF
:1041D000FF4F808191818D939C93FE01E95BFF4F9E
:1041E000808191810197F1F7FE01E95BFF4F918397
:1041F000808384E160E00E94F90985E161E00E942A
:10420000F90986E161E00E94F90987E160E00E9416
:10421000F909FE01ED5BFF4F80E090E0AAEFB3E407
:1042200080839183A283B3838E01015C1F4FFE01C3
:10423000ED5BFF4F608171818281938120E030E0EE
:104240004AEF54E40E941F02DC01CB01F801808395
:104250009183A283B383FE01FF9660817181828185
:10426000938120E030E040E85FE30E9479038823F7
:104270002CF481E090E09EAF8DAF46C0FE01FF962A
:10428000608171818281938120E03FEF4FE757E4A5
:104290000E941903181664F5FE01ED5BFF4F608163
:1042A00071818281938120E030E040E251E40E94FC
:1042B0001F02DC01CB01BC01CD010E944900DC01E1
:1042C000CB019EAF8DAF0FC088EC90E09CAF8BAF61
:1042D0008BAD9CAD0197F1F79CAF8BAF8DAD9EADD3
:1042E00001979EAF8DAF8DAD9EAD009769F716C05B
:1042F000FE01FF9660817181828193810E94490055
:10430000DC01CB019EAF8DAF8DAD9EAD9AAF89AF75
:1043100089AD9AAD0197F1F79AAF89AF84E160E07A
:104320000E94F90985E160E00E94F90986E161E0F7
:104330000E94F90987E160E00E94F90980E090E0BD
:10434000AAEFB3E48DAB9EABAFABB8AF6DA97EA9BE
:104350008FA998AD20E030E04AEF54E40E941F029C
:10436000DC01CB0189AB9AABABABBCAB69A97AA939
:104370008BA99CA920E030E040E85FE30E9479032C
:1043800088232CF481E090E098AB8FA73FC069A907
:104390007AA98BA99CA920E03FEF4FE757E40E9440
:1043A000190318164CF56DA97EA98FA998AD20E0C8
:1043B00030E040E251E40E941F02DC01CB01BC016D
:1043C000CD010E944900DC01CB0198AB8FA70FC043
:1043D00088EC90E09EA78DA78DA59EA50197F1F78B
:1043E0009EA78DA78FA598A9019798AB8FA78FA59A
:1043F00098A9009769F714C069A97AA98BA99CA903
:104400000E944900DC01CB0198AB8FA78FA598A92A
:104410009CA78BA78BA59CA50197F1F79CA78BA7C1
:1044200084E160E00E94F90985E160E00E94F909F9
:1044300086E161E00E94F90987E161E00E94F909E3
:1044400080E090E0AAEFB3E48FA398A7A9A7BAA74A
:104450006FA178A589A59AA520E030E04AEF54E441
:104460000E941F02DC01CB018BA39CA3ADA3BEA3C2
:104470006BA17CA18DA19EA120E030E040E85FE32C
:104480000E94790388232CF481E090E09AA389A309
:104490003FC06BA17CA18DA19EA120E03FEF4FE723
:1044A00057E40E94190318164CF56FA178A589A549
:1044B0009AA520E030E040E251E40E941F02DC01B6
:1044C000CB01BC01CD010E944900DC01CB019AA3C4
:1044D00089A30FC088EC90E098A38F8F8F8D98A14F
:1044E0000197F1F798A38F8F89A19AA101979AA3B9
:1044F00089A389A19AA1009769F714C06BA17CA137
:104500008DA19EA10E944900DC01CB019AA389A341
:1045100089A19AA19E8F8D8F8D8D9E8D0197F1F728
:104520009E8F8D8F84E160E00E94F90985E160E053
:104530000E94F90986E160E00E94F90987E161E0E3
:104540000E94F90980E090E0AAEFB3E4898F9A8F86
:10455000AB8FBC8F698D7A8D8B8D9C8D20E030E088
:104560004AEF54E40E941F02DC01CB018D8B9E8B2D
:10457000AF8BB88F6D897E898F89988D20E030E070
:1045800040E85FE30E94790388232CF481E090E007
:104590009C8B8B8B3FC06D897E898F89988D20E0A5
:1045A0003FEF4FE757E40E94190318164CF5698D49
:1045B0007A8D8B8D9C8D20E030E040E251E40E94AA
:1045C0001F02DC01CB01BC01CD010E944900DC01CE
:1045D000CB019C8B8B8B0FC088EC90E09A8B898BE6
:1045E00089899A890197F1F79A8B898B8B899C89A4
:1045F00001979C8B8B8B8B899C89009769F714C0E2
:104600006D897E898F89988D0E944900DC01CB01DC
:104610009C8B8B8B8B899C89988B8F878F859889B6
:104620000197F1F7988B8F8784E161E00E94F90987
:1046300085E160E00E94F90986E160E00E94F909E5
:1046400087E161E00E94F90980E090E0AAEFB3E41D
:104650008B879C87AD87BE876B857C858D859E8586
:1046600020E030E04AEF54E40E941F02DC01CB015D
:104670008F839887A987BA876F81788589859A857E
:1046800020E030E040E85FE30E94790388232CF4C7
:1046900081E090E09E838D833FC06F81788589851E
:1046A0009A8520E03FEF4FE757E40E941903181660
:1046B0004CF56B857C858D859E8520E030E040E261
:1046C00051E40E941F02DC01CB01BC01CD010E941C
:1046D0004900DC01CB019E838D830FC088EC90E004
:1046E0009C838B838B819C810197F1F79C838B83C7
:1046F0008D819E8101979E838D838D819E81009700
:1047000069F714C06F81788589859A850E94490070
:10471000DC01CB019E838D838D819E819A83898369
:1047200089819A810197F1F79A838983C059DF4F74
:104730000FB6F894DEBF0FBECDBFCF91DF911F91B2
:104740000F910895DF93CF93CDB7DEB7E8970FB6FB
:10475000F894DEBF0FBECDBF84E160E00E94F9098E
:1047600085E160E00E94F90986E160E00E94F909B4
:1047700087E161E00E94F90980E090E0AAEFB3E4EC
:104780008DAB9EABAFABB8AF6DA97EA98FA998AD2D
:1047900020E030E04AEF54E40E941F02DC01CB012C
:1047A00089AB9AABABABBCAB69A97AA98BA99CA925
:1047B00020E030E040E85FE30E94790388232CF496
:1047C00081E090E098AB8FA73FC069A97AA98BA937
:1047D0009CA920E03FEF4FE757E40E941903181609
:1047E0004CF56DA97EA98FA998AD20E030E040E29C
:1047F00051E40E941F02DC01CB01BC01CD010E94EB
:104800004900DC01CB0198AB8FA70FC088EC90E08A
:104810009EA78DA78DA59EA50197F1F79EA78DA7B1
:104820008FA598A9019798AB8FA78FA598A90097F6
:1048300069F714C069A97AA98BA99CA90E944900AB
:10484000DC01CB0198AB8FA78FA598A99CA78BA75C
:104850008BA59CA50197F1F79CA78BA784E160E04D
:104860000E94F90985E160E00E94F90986E161E0B2
:104870000E94F90987E160E00E94F90980E090E078
:10488000AAEFB3E48FA398A7A9A7BAA76FA178A5A9
:1048900089A59AA520E030E04AEF54E40E941F0267
:1048A000DC01CB018BA39CA3ADA3BEA36BA17CA118
:1048B0008DA19EA120E030E040E85FE30E947903F3
:1048C00088232CF481E090E09AA389A33FC06BA1D8
:1048D0007CA18DA19EA120E03FEF4FE757E40E940D
:1048E000190318164CF56FA178A589A59AA520E0A3
:1048F00030E040E251E40E941F02DC01CB01BC0128
:10490000CD010E944900DC01CB019AA389A30FC00D
:1049100088EC90E098A38F8F8F8D98A10197F1F785
:1049200098A38F8F89A19AA101979AA389A389A19E
:104930009AA1009769F714C06BA17CA18DA19EA1DB
:104940000E944900DC01CB019AA389A389A19AA105
:104950009E8F8D8F8D8D9E8D0197F1F79E8F8D8F00
:1049600084E160E00E94F90985E161E00E94F909B3
:1049700086E160E00E94F90987E160E00E94F909A0
:1049800080E090E0AAEFB3E4898F9A8FAB8FBC8F61
:10499000698D7A8D8B8D9C8D20E030E04AEF54E458
:1049A0000E941F02DC01CB018D8B9E8BAF8BB88FD9
:1049B0006D897E898F89988D20E030E040E85FE343
:1049C0000E94790388232CF481E090E09C8B8B8BF0
:1049D0003FC06D897E898F89988D20E03FEF4FE73A
:1049E00057E40E94190318164CF5698D7A8D8B8D4A
:1049F0009C8D20E030E040E251E40E941F02DC0187
:104A0000CB01BC01CD010E944900DC01CB019C8B94
:104A10008B8B0FC088EC90E09A8B898B89899A895F
:104A20000197F1F79A8B898B8B899C8901979C8BD5
:104A30008B8B8B899C89009769F714C06D897E895F
:104A40008F89988D0E944900DC01CB019C8B8B8B58
:104A50008B899C89988B8F878F8598890197F1F72F
:104A6000988B8F8784E161E00E94F90985E160E01D
:104A70000E94F90986E160E00E94F90987E160E09F
:104A80000E94F90980E090E0AAEFB3E48B879C874D
:104A9000AD87BE876B857C858D859E8520E030E067
:104AA0004AEF54E40E941F02DC01CB018F839887F8
:104AB000A987BA876F81788589859A8520E030E05B
:104AC00040E85FE30E94790388232CF481E090E0C2
:104AD0009E838D833FC06F81788589859A8520E08C
:104AE0003FEF4FE757E40E94190318164CF56B850A
:104AF0007C858D859E8520E030E040E251E40E9477
:104B00001F02DC01CB01BC01CD010E944900DC0188
:104B1000CB019E838D830FC088EC90E09C838B83B8
:104B20008B819C810197F1F79C838B838D819E8182
:104B300001979E838D838D819E81009769F714C0B4
:104B40006F81788589859A850E944900DC01CB01B7
:104B50009E838D838D819E819A83898389819A81A9
:104B60000197F1F79A838983E8960FB6F894DEBF30
:104B70000FBECDBFCF91DF910895DF93CF93CDB717
:104B8000DEB727970FB6F894DEBF0FBECDBF9D836B
:104B90008C836E834F838AE190E00E9495289A83EC
:104BA000898389819A81009709F46FC080913701C8
:104BB00090913801009741F489819A81909338014E
:104BC000809337010E9424288E81823010F081E08A
:104BD0008E83E981FA81118E108EE981FA818E81AE
:104BE000868BE981FA818F81878BE981FA818C81BB
:104BF0009D819183808389819A8102960E942B29CD
:104C000089819A810C960E942B29E981FA818981F8
:104C10009A8191878087E981FA8189819A81938B32
:104C2000828B8E81282F30E083E090E0821B930BF3
:104C3000E981FA8195878487E981FA819689809153
:104C40003901891728F4E981FA818689809339012D
:104C5000E981FA818689282F30E0C901880F991FE0
:104C6000880F991F880F991F820F931FAC01405C1A
:104C70005E4F89819A819C012E5F3F4FCA01B90125
:104C80000E943B2981E08B8302C08FEF8B838B8155
:104C900027960FB6F894DEBF0FBECDBFCF91DF9140
:104CA0000895DF93CF9300D000D000D0CDB7DEB70A
:104CB0009C838B837E836D8320913A0130913B01ED
:104CC0008B819C81820F931F9A8389838091370106
:104CD0009091380102960E94F329E0913701F091FA
:104CE000380189819A819383828320913A0130919E
:104CF0003B0189819A818217930770F48091660144
:104D00009091670120913701309138012E5F3F4F1C
:104D1000B9010E9487290DC08091640190916501BD
:104D200020913701309138012E5F3F4FB9010E9429
:104D300087298D819E81009761F080913701909144
:104D400038019C01245F3F4F8D819E81B9010E94F3
:104D5000872926960FB6F894DEBF0FBECDBFCF9140
:104D6000DF910895DF93CF9300D0CDB7DEB73AC07F
:104D7000F894E0916D01F0916E01868197819A839C
:104D8000898389819A810C960E94F329789489817C
:104D90009A8102960E94F329E981FA81968980918D
:104DA0003901891728F4E981FA81868980933901CC
:104DB000E981FA818689282F30E0C901880F991F7F
:104DC000880F991F880F991F820F931FAC01405CB9
:104DD0005E4F89819A819C012E5F3F4FCA01B901C4
:104DE0000E943B2980916801882309F0C1CF0F9070
:104DF0000F90CF91DF910895DF93CF9300D000D033
:104E0000CDB7DEB70E94803420913C0130913D0146
:104E1000821B930B90933F0180933E0185C080914C
:104E20003A0190913B01019690933B0180933A01A6
:104E300080913E0190913F01019790933F018093B3
:104E40003E0180913A0190913B01009709F064C0C6
:104E500080916401909165019A83898380916601B4
:104E600090916701909365018093640189819A8193
:104E700090936701809366014FC0E0916401F091C7
:104E800065010580F681E02D868197819C838B8367
:104E9000EB81FC812281338180913A0190913B0129
:104EA0008217930708F440C0F8948B819C81029686
:104EB0000E94F329EB81FC8184899589009729F070
:104EC0008B819C810C960E94F3297894EB81FC8164
:104ED000968980913901891728F4EB81FC818689B4
:104EE00080933901EB81FC818689282F30E0C9014C
:104EF000880F991F880F991F880F991F820F931F82
:104F0000AC01405C5E4F8B819C819C012E5F3F4FCA
:104F1000CA01B9010E943B29E0916401F091650149
:104F20008081882309F0A9CF80913E0190913F01B3
:104F3000009709F074CF80913A0190913B019093D2
:104F40003D0180933C010F900F900F900F90CF91F7
:104F5000DF910895DF93CF9300D0CDB7DEB70E94E5
:104F6000B2260E94FC260AC080913901882309F4E8
:104F700066C0809139018150809339018091390157
:104F8000282F30E0C901880F991F880F991F880FBB
:104F9000991F820F931FFC01E05CFE4F80818823E4
:104FA00019F380913901282F30E0C901880F991F2A
:104FB000880F991F880F991F820F931F805C9E4F47
:104FC0009A838983E981FA810180F281E02D8281CF
:104FD0009381E981FA8192838183E981FA81218138
:104FE000328189819A8103962817390759F4E9811A
:104FF000FA810180F281E02D82819381E981FA8139
:1050000092838183E981FA810180F281E02D86819A
:1050100097819093380180933701E0913701F091A7
:105020003801408151818091370190913801E091A0
:105030003701F09138012789622FFA0109950F9005
:105040000F90CF91DF910895DF93CF930F92CDB75B
:10505000DEB7198213C08981282F30E0C901880F7B
:10506000991F880F991F880F991F820F931F805CCB
:105070009E4F0E94012989818F5F898389818230B7
:1050800050F382E591E00E9401298BE591E00E94B6
:10509000012988E691E00E94012982E591E0909340
:1050A0006501809364018BE591E0909367018093A3
:1050B00066010F90CF91DF910895DF93CF9300D0D9
:1050C00000D00F92CDB7DEB79D838C83EC81FD813C
:1050D0000580F681E02D868197819B838A838A8172
:1050E0009B810C960E94F3298A819B819C01245FFD
:1050F0003F4F88E691E0B9010E943B29EA81FB819C
:105100009689E0913701F09138018689981718F057
:1051100081E0898301C0198289810F900F900F90DF
:105120000F900F90CF91DF910895DF93CF9300D030
:1051300000D0CDB7DEB79C838B831A8219820E9480
:10514000EA3380917101909172012B813C81820F31
:10515000931F23E0883E920718F52091710130914A
:1051600072018B819C81280F391F80917101909170
:10517000720182179307A0F48091710190917201DE
:105180008D589E4F9A8389832091710130917201CD
:105190008B819C81820F931F909372018093710188
:1051A0000E94F63389819A810F900F900F900F9093
:1051B000CF91DF910895DF93CF9300D0CDB7DEB7C5
:1051C0009A8389830F900F90CF91DF910895DF9399
:1051D000CF93CDB7DEB71092720110927101CF91CB
:1051E000DF910895DF93CF93CDB7DEB720917101A2
:1051F0003091720188EE93E0821B930BCF91DF9187
:105200000895DF93CF9300D0CDB7DEB79A8389831B
:1052100089819A810396E981FA8192838183E98168
:10522000FA818FEF9FEF9483838389819A8103961C
:10523000E981FA819683858389819A810396E98140
:10524000FA8190878783E981FA8110820F900F900D
:10525000CF91DF910895DF93CF9300D0CDB7DEB724
:105260009A838983E981FA81118610860F900F90C5
:10527000CF91DF910895DF93CF9300D000D000D07D
:10528000CDB7DEB79C838B837E836D83EB81FC81FE
:10529000818192819A838983E981FA8182819381D4
:1052A000ED81FE8193838283EB81FC8181819281F8
:1052B000ED81FE8195838483E981FA810280F38107
:1052C000E02D8D819E81958384838D819E81E981EE
:1052D000FA81938382838D819E81EB81FC8192830D
:1052E0008183ED81FE818B819C8191878087EB8119
:1052F000FC8180818F5FEB81FC81808326960FB6D5
:10530000F894DEBF0FBECDBFCF91DF910895DF933C
:10531000CF93CDB7DEB728970FB6F894DEBF0FBE98
:10532000CDBF9E838D8378876F83EF81F8858081E1
:1053300091819A83898389819A812FEF8F3F920788
:1053400039F4ED81FE81878190859C838B8318C021
:105350008D819E8103969C838B8306C0EB81FC81AB
:10536000828193819C838B83EB81FC810280F3811A
:10537000E02D2081318189819A818217930770F70E
:10538000EB81FC8182819381EF81F8859383828315
:10539000EF81F8850280F381E02D8F8198859583D8
:1053A0008483EF81F8858B819C81958384838F81B1
:1053B0009885EB81FC8193838283EF81F8858D81D1
:1053C0009E8191878087ED81FE8180818F5FED8155
:1053D000FE81808328960FB6F894DEBF0FBECDBF46
:1053E000CF91DF910895DF93CF9300D000D0CDB758
:1053F000DEB79C838B83EB81FC81A281B381EB813F
:10540000FC818481958115969C938E931497EB81F2
:10541000FC81A481B581EB81FC818281938113960B
:105420009C938E931297EB81FC81808591859A8362
:105430008983E981FA81218132818B819C812817BE
:10544000390741F4EB81FC8184819581E981FA81FE
:1054500092838183EB81FC8111861086E981FA8138
:1054600080818150E981FA8180830F900F900F90A5
:105470000F90CF91DF910895DF93CF93CDB7DEB733
:1054800028970FB6F894DEBF0FBECDBF9C838B83E9
:105490007E836D8358874F83EB81FC8181E180831C
:1054A0008B819C8101979C838B83EB81FC8182E2C1
:1054B00080838B819C8101979C838B83EB81FC8112
:1054C00083E380838B819C8101979C838B838D8177
:1054D0009E819A8389838981EB81FC8180838B8182
:1054E0009C8101979C838B8389819A81892F99273D
:1054F0009A8389838981EB81FC8180838B819C8164
:1055000001979C838B83EB81FC8110828B819C8132
:1055100001979C838B83EB81FC8180E880838B8166
:105520009C8101979C838B83EB81FC8110828B8112
:105530009C8101979C838B83EB81FC8182E080833B
:105540008B819C8101979C838B83EB81FC8183E021
:1055500080838B819C8101979C838B83EB81FC8171
:1055600084E080838B819C8101979C838B83EB817A
:10557000FC8185E080838B819C8101979C838B8358
:10558000EB81FC8186E080838B819C8101979C83E9
:105590008B83EB81FC8187E080838B819C810197E9
:1055A0009C838B83EB81FC8188E080838B819C8151
:1055B00001979C838B83EB81FC8189E080838B81C5
:1055C0009C8101979C838B83EB81FC8180E18083AC
:1055D0008B819C8101979C838B83EB81FC8181E192
:1055E00080838B819C8101979C838B83EB81FC81E1
:1055F00082E180838B819C8101979C838B83EB81EB
:10560000FC8183E180838B819C8101979C838B83C8
:10561000EB81FC8184E180838B819C8101979C8359
:105620008B83EB81FC8185E180838B819C81019759
:105630009C838B83EB81FC8186E180838B819C81C1
:1056400001979C838B83EB81FC8187E180838B8135
:105650009C8101979C838B83EB81FC8188E1808313
:105660008B819C8101979C838B83EB81FC8189E1F9
:1056700080838B819C8101979C838B83EB81FC8150
:1056800080E280838B819C8101979C838B83EB815B
:10569000FC8181E280838B819C8101979C838B8339
:1056A000EB81FC8182E280838B819C8101979C83CA
:1056B0008B83EB81FC8183E280838B819C810197CA
:1056C0009C838B838F8198859A8389838981EB81E1
:1056D000FC8180838B819C8101979C838B83898152
:1056E0009A81892F99279A8389838981EB81FC810B
:1056F00080838B819C8101979C838B83EB81FC81D0
:1057000086E280838B819C8101979C838B83EB81D4
:10571000FC8187E280838B819C8101979C838B83B2
:10572000EB81FC8188E280838B819C8101979C8343
:105730008B83EB81FC8189E280838B819C81019743
:105740009C838B83EB81FC8180E380838B819C81B4
:1057500001979C838B83EB81FC8181E380838B8128
:105760009C8101979C838B838B819C8128960FB6AB
:10577000F894DEBF0FBECDBFCF91DF910895DF93C8
:10578000CF93CDB7DEB70E94AF2CA0915B05B0914F
:105790005C05CD91CDBFDD91DEBFFF91EF91DF9133
:1057A000CF91BF91AF919F918F917F916F915F91B9
:1057B0004F913F912F911F910F91FF90EF90DF90AC
:1057C000CF90BF90AF909F908F907F906F905F90A1
:1057D0004F903F902F901F900F900FBE0F90089505
:1057E00081E0CF91DF910895DF93CF93CDB7DEB7FE
:1057F000CF91DF9108950F920FB6F8940F921F92F8
:1058000011242F923F924F925F926F927F928F92CC
:105810009F92AF92BF92CF92DF92EF92FF920F933F
:105820001F932F933F934F935F936F937F938F9328
:105830009F93AF93BF93CF93DF93EF93FF93A09189
:105840005B05B0915C050DB60D920EB60D920E94EF
:105850008A35A0915B05B0915C05CD91CDBFDD91FE
:10586000DEBFFF91EF91DF91CF91BF91AF919F91FB
:105870008F917F916F915F914F913F912F911F91E8
:105880000F91FF90EF90DF90CF90BF90AF909F90DF
:105890008F907F906F905F904F903F902F901F90D0
:1058A0000F900FBE0F9008950F920FB6F8940F92BD
:1058B0001F9211242F923F924F925F926F927F928C
:1058C0008F929F92AF92BF92CF92DF92EF92FF9210
:1058D0000F931F932F933F934F935F936F937F93F8
:1058E0008F939F93AF93BF93CF93DF93EF93FF93E8
:1058F000A0915B05B0915C050DB60D920EB60D92B0
:105900000E94B5340E948A35A0915B05B0915C0578
:10591000CD91CDBFDD91DEBFFF91EF91DF91CF91B2
:10592000BF91AF919F918F917F916F915F914F91B7
:105930003F912F911F910F91FF90EF90DF90CF90AB
:10594000BF90AF909F908F907F906F905F904F909F
:105950003F902F901F900F900FBE0F900895DF93F0
:10596000CF9300D000D000D0CDB7DEB780E49FE168
:10597000A0E0B0E08B839C83AD83BE838B819C8150
:10598000AD81BE81689415F8B695A79597958795D2
:105990001694D1F78B839C83AD83BE838B819C81CE
:1059A000AD81BE810197A109B1098B839C83AD8331
:1059B000BE838B8189838B819C81AD81BE81892F40
:1059C0009A2FAB2FBB278B839C83AD83BE838B81A8
:1059D0008A83EBE4F0E08A818083EAE4F0E0898165
:1059E00080838BE08983EEE4F0E089818083E9E5C0
:1059F000F0E080818983898180618983E9E5F0E035
:105A00008981808326960FB6F894DEBF0FBECDBF86
:105A1000CF91DF9108950E94542C1895DF93CF9376
:105A2000CDB7DEB728970FB6F894DEBF0FBECDBF57
:105A30008F8368871A8219828F81882309F48CC02A
:105A40008FE190E00E9495289E838D838D819E81B9
:105A5000009709F481C08F81282F30E08885882F36
:105A600090E0AC01249FC001259F900D349F900DC4
:105A7000112401969C838B838B819C810E949528A5
:105A8000ED81FE8191838083ED81FE818081918112
:105A9000009709F45DC0ED81FE81408151818F81C5
:105AA000282F30E08885882F90E0BC01269FC00118
:105AB000279F900D369F900D1124840F951FED8127
:105AC000FE8193838283ED81FE81128EED81FE81C2
:105AD00080819181ED81FE8195838483ED81FE81BA
